S02200006279753031345F6C6E6775793038395F6C6162335F70617274342E73726563E3
S113000045C000004BC0000049C0000047C00000CC
S113001045C0000043C0000041C000003FC00000D4
S11300203DC000003BC0000039C0000037C00000E4
S113003035C0000033C0000031C000002FC00000F4
S11300402DC000002BC0000029C0000027C0000004
S113005025C0000023C0000021C000001FC0000014
S11300601DC000001BC0000019C0000017C0000024
S113007015C0000013C0000011C000000FC0000034
S11300800DC000000BC0000009C0000011241FBEF9
S1130090CFEFD0E4DEBFCDBF4ED0ACC0B1CFCF9355
S11300A0DF9300D01F92CDB7DEB789836A834B8379
S11300B08B81882371F08A81282F30E081E090E0E1
S11300C002C0880F991F2A95E2F7982F8981892BFE
S11300D00EC08A81282F30E081E090E002C0880FB2
S11300E0991F2A95E2F7982F9095898189230F907B
S11300F00F900F90DF91CF910895CF93DF9300D0AD
S1130100CDB7DEB789836A838981882F90E02A81FD
S1130110222F30E002C0959587952A95E2F78170E9
S1130120992721E0892B09F420E0822F0F900F906A
S1130130DF91CF910895CF93DF9300D000D01F9229
S1130140CDB7DEB781E290E0FC01108282E290E05C
S1130150FC01108284E290E02FEFFC01208385E211
S113016090E0FC01108287E290E02FEFFC012083F5
S113017088E290E0FC0110821C8219821A821D829E
S113018080E290E0FC0180818C8319821A821D82B6
S11301901B821B820EC08B818C5F682F8C81ADDF2C
S11301A08D834D816B8189817ADF89838B818F5F18
S11301B08B838B81843078F31B820EC06B818C819E
S11301C09CDF8D838B818C5F4D81682F8A8167DFF3
S11301D08A838B818F5F8B838B81843078F385E274
S11301E090E02981FC01208388E290E02A81FC01CF
S10B01F02083C6CFF894FFCF71
S9030000FC
