S02200006279753031345F6C6E6775793038395F6C6162335F70617274332E73726563E4
S113000045C000004BC0000049C0000047C00000CC
S113001045C0000043C0000041C000003FC00000D4
S11300203DC000003BC0000039C0000037C00000E4
S113003035C0000033C0000031C000002FC00000F4
S11300402DC000002BC0000029C0000027C0000004
S113005025C0000023C0000021C000001FC0000014
S11300601DC000001BC0000019C0000017C0000024
S113007015C0000013C0000011C000000FC0000034
S11300800DC000000BC0000009C0000011241FBEF9
S1130090CFEFD0E4DEBFCDBF20D09BC0B1CFCF9394
S11300A0DF9300D0CDB7DEB789836A838981882F37
S11300B090E02A81222F30E002C0959587952A95F9
S11300C0E2F78170992721E0892B09F420E0822F3F
S11300D00F900F90DF91CF910895CF93DF9300D0CD
S11300E0CDB7DEB781E290E020E8FC01208382E214
S11300F090E0FC01108287E290E02FEFFC01208366
S113010088E290E0FC01108219821A821A8280E24D
S113011090E0FC01808189838981813019F0898193
S1130120823011F480E28A838981833019F08981D5
S1130130843011F480E18A838981853019F08981C2
S1130140863011F488E08A838981873031F089818F
S1130150883019F08981893011F484E08A83898197
S11301608A3031F089818B3019F089818C3011F417
S113017082E08A8389818D3031F089818E3019F053
S113018089818F3011F481E08A838981853018F464
S11301908A81805C8A8364E0898181DF882369F0B5
S11301A065E089817CDF882341F066E0898177DF1F
S11301B0882319F480E8898301C0198282E290E0DF
S11301C02981FC01208388E290E02A81FC012083BC
S10901D09DCFF894FFCF5F
S9030000FC
