S02200006279753031345F6C6E6775793038395F6C6162345F70617274312E73726563E5
S113000045C0000053C0000051C000004FC00000B4
S11300104DC000004BC0000049C0000047C00000B4
S113002045C0000043C0000041C000003FC00000C4
S11300303DC000003BC0000039C0000037C00000D4
S113004035C0000033C0000031C000002FC00000E4
S11300502DC000002BC0000029C0000027C00000F4
S113006025C0000023C0000021C000001FC0000004
S11300701DC000001BC0000019C0000017C0000014
S113008015C0000013C0000011C0000011241FBEE1
S1130090CFEFD0E4DEBFCDBF21E0A0E0B1E001C0EE
S11300A01D92A430B207E1F766D080C0A9CFCF93E8
S11300B0DF93CDB7DEB780E290E0FC0180818093CE
S11300C0010110920001809102019091030181309D
S11300D0910569F08130910518F00297D1F02BC099
S11300E081E090E0909303018093020124C0809109
S11300F00101813039F482E090E090930301809310
S1130100020119C081E090E0909303018093020101
S113011012C080910101813039F481E090E0909324
S113012003018093020106C082E090E090930301F2
S113013080930201000080910201909103018130BB
S1130140910531F08130910558F0029729F009C0EA
S113015081E08093000105C082E08093000101C02A
S1130160000085E290E020910001FC012083000062
S1130170DF91CF910895CF93DF93CDB7DEB781E2BE
S113018090E0FC01108282E290E0FC01108284E2A3
S113019090E02FE0FC01208385E290E0FC011082D6
S11301A0109203011092020182DFFECFF894FFCF78
S9030000FC
