S02300006279753031345F6C6E6775793038395F6C616231305F70617274332E73726563B5
S113000045C0000060C000005EC000005CC000008D
S11300105AC0000058C0000056C0000054C0000080
S113002052C0000050C000004EC000004CC0000090
S11300304AC000006BC1000046C0000044C000007C
S113004042C0000040C000003EC000003CC00000B0
S11300503AC0000038C0000036C0000034C00000C0
S113006032C0000030C000002EC000002CC00000D0
S11300702AC0000028C0000026C0000024C00000E0
S113008022C0000020C000001EC0000011241FBEBA
S1130090CFEFD0E4DEBFCDBF11E0A0E0B1E0EEE9E8
S11300A0FBE000E00BBF02C007900D92A430B10743
S11300B0D9F721E0A4E0B1E001C01D92AF33B2074B
S11300C0E1F7D9D26AC59CCFCF93DF93CDB7DEB722
S11300D081E890E02BE0FC01208388E890E02DE7A4
S11300E030E0FC01318320838FE690E022E0FC01C4
S11300F0208384E890E0FC01118210828091000149
S113010090910101A0910201B09103018093040137
S113011090930501A0930601B09307018FE590E049
S11301202FE530E0F90120812068FC0120830000E4
S1130130DF91CF910895CF93DF9300D000D0CDB756
S1130140DEB769837A838B839C8389819A81AB81AF
S1130150BC818093000190930101A0930201B093AC
S113016003018091000190910101A0910201B091DD
S113017003018093040190930501A0930601B093B9
S1130180070100000F900F900F900F90DF91CF9117
S113019008950F931F93CF93DF931F92CDB7DEB7CC
S11301A01982A4C08981282F30E0C901880F991FC2
S11301B0820F931F880F991F880F991F8B5E9E4F84
S11301C0FC0120813181428153818981682F70E053
S11301D0CB01880F991F860F971F880F991F880FCF
S11301E0991F8F5E9E4FFC0180819181A281B38112
S11301F0281739074A075B0708F449C08981082F83
S113020010E08981282F30E0C901880F991F820FDF
S1130210931F880F991F880F991F875E9E4FFC01BB
S1130220408151818981282F30E0C901880F991FAD
S1130230820F931F880F991F880F991F815F9E4F0C
S1130240FC0180819181FA0109959C01C801880F04
S1130250991F800F911F880F991F880F991F815F25
S11302609E4FFC01318320838981282F30E0C9010E
S1130270880F991F820F931F880F991F880F991F4A
S11302808B5E9E4FFC01108211821282138289813F
S1130290682F70E08981282F30E0C901880F991FE9
S11302A0820F931F880F991F880F991F8B5E9E4F93
S11302B0FC0180819181A281B3819C01AD012F5FFA
S11302C03F4F4F4F5F4FCB01880F991F860F971FEA
S11302D0880F991F880F991F8B5E9E4FFC01208306
S11302E031834283538389818F5F89838981282F56
S11302F030E084E090E02817390708F453CF000079
S11303000F90DF91CF911F910F9108951F920F923B
S113031000905F000F92112400905B000F922F93C6
S11303203F934F935F936F937F938F939F93AF9379
S1130330BF93EF93FF93CF93DF93CDB7DEB7809155
S1130340040190910501A0910601B0910701019764
S1130350A109B1098093040190930501A0930601BA
S1130360B09307018091040190910501A0910601C9
S1130370B0910701892B8A2B8B2B89F40ADF80919A
S1130380000190910101A0910201B09103018093B9
S1130390040190930501A0930601B09307010000A6
S11303A0DF91CF91FF91EF91BF91AF919F918F9189
S11303B07F916F915F914F913F912F910F90009298
S11303C05B000F9000925F000F901F9018950F93A1
S11303D01F93CF93DF9300D000D0CDB7DEB76983EE
S11303E07A838B839C8380910A0190910B01A09165
S11303F00C01B0910D019C01AD0169817A818B8161
S11304009C8152D2882309F46CC020E030E0A90119
S113041069817A818B819C8147D2882351F485E458
S113042090E025E430E0F90120812870FC0120836C
S113043009C085E490E025E430E0F90120812360DF
S1130440FC01208328E539E344E75FE369817A818D
S11304508B819C8129D2882334F487E490E02FEFA8
S1130460FC0120832EC020E034E244EF56E469818D
S11304707A818B819C812AD318162CF487E490E02E
S1130480FC0110821EC007E410E020E030E040E0F0
S113049053E469817A818B819C811CD3DC01CB017B
S11304A09C01AD0160E074E284EF9AE401D2DC01C6
S11304B0CB01BC01CD0164D2DC01CB018150F80138
S11304C0808386E490E0FC01108289819A81AB816B
S11304D0BC8180930A0190930B01A0930C01B0930B
S11304E00D0100000F900F900F900F90DF91CF91AE
S11304F01F910F910895CF93DF93CDB7DEB784E4B6
S113050090E021E4FC01208385E490E02BE0FC01F1
S1130510208360E070E0CB015ADF0000DF91CF91CF
S11305200895CF93DF9300D0CDB7DEB79A83898344
S113053089819A81009719F0019749F016C081E0EA
S11305408093080181E090E09A8389830EC08091B2
S11305500801843021F481E08093080105C0809172
S11305600801880F80930801000089819A810F9007
S11305700F90DF91CF910895CF93DF9300D0CDB743
S1130580DEB79A83898389819A81009719F001974C
S113059049F014C080E18093090181E090E09A83DE
S11305A089830CC08091090182958F70882311F48E
S11305B080E101C080E080930901000089819A8173
S11305C00F900F90DF91CF910895CF93DF9300D0D8
S11305D0CDB7DEB79A83898389819A81892B09F003
S11305E00AC085E290E03091080120910901230FAF
S11305F0FC012083000089819A810F900F90DF9184
S1130600CF910895CF93DF9300D0CDB7DEB79A830F
S1130610898389819A81892B39F580E290E0FC01F4
S11306208081882F90E08095909587709927049712
S1130630A1F480910E01882349F464EA70ED82E804
S113064093E4C5DE81E080930E010DC060E070E0AC
S1130650CB01BDDE10920E0106C060E070E0CB015C
S1130660B6DE10920E01000089819A810F900F90DE
S1130670DF91CF910895CF93DF931F92CDB7DEB76B
S113068084E290E02FEFFC01208385E290E0FC01FE
S1130690108281E290E0FC01108282E290E02FEF70
S11306A0FC01208319828981282F30E0C901880F39
S11306B0991F820F931F880F991F880F991F815FBD
S11306C09E4FFC01118210828981282F30E0C901DC
S11306D0880F991F820F931F880F991F880F991FE6
S11306E09C012F5E3E4F8CE291E0A0E0B0E0F90166
S11306F080839183A283B3838981282F30E0C90149
S1130700880F991F820F931F880F991F880F991FB5
S1130710875E9E4F21E932E0FC0131832083898189
S11307208F5F89838981282F30E0C901880F991F41
S1130730820F931F880F991F880F991F815F9E4F07
S1130740FC01118210828981282F30E0C901880FB1
S1130750991F820F931F880F991F880F991F9C015F
S11307602F5E3E4F88EE93E0A0E0B0E0F901808375
S11307709183A283B3838981282F30E0C901880F34
S1130780991F820F931F880F991F880F991F875EE7
S11307909E4F2CEB32E0FC013183208389818F5FF3
S11307A089838981282F30E0C901880F991F820F1E
S11307B0931F880F991F880F991F815F9E4FFC011B
S11307C0118210828981282F30E0C901880F991F76
S11307D0820F931F880F991F880F991F9C012F5E0A
S11307E03E4F82E090E0A0E0B0E0F9018083918385
S11307F0A283B3838981282F30E0C901880F991F10
S1130800820F931F880F991F880F991F875E9E4F31
S113081022E033E0FC013183208389818F5F898367
S11308208981282F30E0C901880F991F820F931FF7
S1130830880F991F880F991F815F9E4FFC011182B9
S113084010828981282F30E0C901880F991F820FF7
S1130850931F880F991F880F991F9C012F5E3E4F8D
S113086081E090E0A0E0B0E0F90180839183A2836D
S1130870B3838981282F30E0C901880F991F820F23
S1130880931F880F991F880F991F875E9E4F25EE2F
S113089032E0FC01318320832EDE61E070E080E0F1
S11308A090E049DC11DCFFCF9CD008F481E008958E
S11308B00CD0D2C0CAD040F0C1D030F021F45F3F98
S11308C019F0B3C05111FCC0B6C0D7D098F3992326
S11308D0C9F35523B1F3951B550BBB27AA27621700
S11308E07307840738F09F5F5F4F220F331F441F45
S11308F0AA1FA9F333D00E2E3AF0E0E830D091507D
S11309005040E695001CCAF729D0FE2F27D0660F69
S1130910771F881FBB1F261737074807AB07B0E8A8
S113092009F0BB0B802DBF01FF2793585F4F2AF0BE
S11309309E3F510568F079C0C3C05F3FECF3983E19
S1130940DCF3869577956795B795F7959F5FC9F71B
S1130950880F911D9695879597F90895E1E0660FA4
S1130960771F881FBB1F621773078407BA0720F01D
S1130970621B730B840BBA0BEE1F88F7E095089586
S113098004D06894B1119CC008957FD088F09F571B
S113099090F0B92F9927B751A0F0D1F0660F771FC7
S11309A0881F991F1AF0BA95C9F712C0B13081F0A7
S11309B086D0B1E0089583C0672F782F8827B85F69
S11309C039F0B93FCCF3869577956795B395D9F708
S11309D03EF490958095709561957F4F8F4F9F4F12
S11309E00895990F0008550FAA0BE0E8FEEF1616BC
S11309F01706E807F907C0F012161306E407F5070F
S1130A0098F0621B730B840B950B39F40A2661F082
S1130A10232B242B252B21F408950A2609F4A14025
S1130A20A6958FEF811D811D089597F99F6780E832
S1130A3070E060E008959FEF80EC089500240A942C
S1130A401616170618060906089500240A941216A5
S1130A501306140605060895092E0394000C11F4D8
S1130A60882352F0BB0F40F4BF2B11F460FF04C085
S1130A706F5F7F4F8F4F9F4F089557FD9058440FDE
S1130A80551F59F05F3F71F04795880F97FB991FE9
S1130A9061F09F3F79F087950895121613061406A6
S1130AA0551FF2CF4695F1DF08C016161706180633
S1130AB0991FF1CF86957105610508940895E8940E
S1130AC0BB2766277727CB0197F908958ADF08F4B7
S1130AD08FEF08950BD0C0CFB1DF28F0B6DF18F048
S1130AE0952309F0A2CFA7CF1124EACFC6DFA0F344
S1130AF0959FD1F3950F50E0551F629FF001729FAF
S1130B00BB27F00DB11D639FAA27F00DB11DAA1FCD
S1130B10649F6627B00DA11D661F829F2227B00D1A
S1130B20A11D621F739FB00DA11D621F839FA00DA5
S1130B30611D221F749F3327A00D611D231F849FF5
S1130B40600D211D822F762F6A2F11249F5750404C
S1130B508AF0E1F088234AF0EE0FFF1FBB1F661FE7
S1130B60771F881F91505040A9F79E3F510570F0A0
S1130B705CCFA6CF5F3FECF3983EDCF38695779588
S1130B806795B795F795E7959F5FC1F7FE2B880F9B
S1110B90911D9695879597F90895F894FFCFD7
S1070B9E010000004E
S9030000FC
