S02200006279753031345F6C6E6775793038395F6C6162355F70617274332E73726563E2
S11300004DC000005BC0000059C0000057C0000094
S113001055C0000053C0000051C000004FC0000094
S11300204DC000004BC0000049C0000047C00000A4
S113003045C0000043C0000041C000003FC00000B4
S11300403DC000003BC0000039C0000037C00000C4
S113005035C0000033C0000031C000002FC00000D4
S11300602DC000002BC0000029C0000027C00000E4
S113007025C0000023C0000021C000001FC00000F4
S11300801DC000001BC0000019C000006F007300F9
S113009079007D008700830087008B0011241FBE38
S11300A0CFEFD0E4DEBFCDBF21E0A0E0B1E001C0DE
S11300B01D92A430B207E1F77CD08CC0A1CF80B1EF
S11300C080958093020190910301492F50E04830BC
S11300D0510508F045C0FA01EA5BFF4F72C081E0A8
S11300E0809303014AC080FF48C082E080930301EB
S11300F048C083E080930301089580FD59C087E0E0
S113010080930301089583E080930301089583E0BD
S113011080930301089580FF4BC0809100018630D5
S113012038F48F5F8093000184E0809303012EC034
S1130130863039F487E08093000185E080930301E1
S11301402CC08C3038F48F5F8093000186E080935C
S1130150030128C01092000181E0809303010DC0C7
S11301609430A1F028F4913041F0923009F509C09F
S1130170953099F09630B1F008951092010118B8B5
S113018008958AE28093010188B90895809101015C
S113019080958093010188B908958FEF80930101C0
S11301A088B908958091010180958093010188B9EF
S11301B0089511B88FE082B98FEF87B918B87FDF3F
S11301C0FECFEE0FFF1F0024001C0BBE0790F6911C
S10B01D0E02D0994F894FFCF1F
S9030000FC
