:1000000045C0000060C000005EC000005CC0000091
:100010005AC0000058C0000056C0000054C0000084
:1000200052C0000050C000004EC000004CC0000094
:100030004AC00000FEC1000046C0000044C00000ED
:1000400042C0000040C000003EC000003CC00000B4
:100050003AC0000038C0000036C0000034C00000C4
:1000600032C0000030C000002EC000002CC00000D4
:100070002AC0000028C0000026C0000024C00000E4
:1000800022C0000020C000001EC0000011241FBEBE
:10009000CFEFD0E4DEBFCDBF11E0A0E0B1E0EAE5F4
:1000A000FCE000E00BBF02C007900D92A232B10746
:1000B000D9F721E0A2E2B1E001C01D92A936B20752
:1000C000E1F74ED2C8C59CCFCF93DF9300D01F92EB
:1000D000CDB7DEB789836A834B838B81882371F028
:1000E0008A81282F30E081E090E002C0880F991FBC
:1000F0002A95E2F7982F8981892B0EC08A81282FB3
:1001000030E081E090E002C0880F991F2A95E2F765
:10011000982F9095898189230F900F900F90DF91F0
:10012000CF910895CF93DF93CDB7DEB781E01AD09A
:100130000000DF91CF910895CF93DF93CDB7DEB765
:1001400084E690E0ACD088E30DD086E00BD08FE061
:1001500009D081E007D08AE090E0A1D00000DF91D3
:10016000CF910895CF93DF931F92CDB7DEB78983E8
:1001700082E290E022E230E0F90120812E7FFC0152
:1001800020838BE290E02981FC01208382E290E0D1
:1001900022E230E0F90120812260FC01208300008E
:1001A00082E290E022E230E0F90120812D7FFC0123
:1001B000208382E090E073D000000F90DF91CF9118
:1001C0000895CF93DF931F92CDB7DEB7898382E284
:1001D00090E022E230E0F90120812160FC012083DF
:1001E0008BE290E02981FC01208382E290E022E210
:1001F00030E0F90120812260FC012083000082E2CE
:1002000090E022E230E0F90120812D7FFC01208383
:1002100081E090E044D000000F90DF91CF910895ED
:10022000CF93DF9300D000D0CDB7DEB78A837C8335
:100230006B8378DF8A8189830FC0898191E0980F71
:10024000998318D08B819C819C012F5F3F4F3C8309
:100250002B83FC018081B5DF8B819C81FC01808137
:10026000882359F700000F900F900F900F90DF91A7
:10027000CF910895CF93DF931F92CDB7DEB78983D7
:100280008981813120F4898181586CDF03C08981A3
:10029000815568DF00000F90DF91CF910895CF93D3
:1002A000DF9300D000D000D0CDB7DEB79E838D8322
:1002B0001A82198213C01C821B8206C000008B8127
:1002C0009C8101969C838B838B819C81873093409A
:1002D000ACF389819A8101969A83898329813A8135
:1002E0008D819E812817390734F3000026960FB6BA
:1002F000F894DEBF0FBECDBFDF91CF910895CF93AD
:10030000DF9300D000D0CDB7DEB78A837C836B83C8
:100310008A818830D0F48A81882F90E00896880FEF
:10032000880F880F1FDF19820DC08981882F90E008
:100330002B813C81820F931FFC01808142DF8981E8
:100340008F5F89838981883080F380E80BDF00002C
:100350000F900F900F900F90DF91CF910895CF9352
:10036000DF9300D000D0CDB7DEB79C838B8319829A
:100370008FEF8A838B819C81892B09F046C0109274
:10038000260129C080912701282F30E08091260185
:10039000882F90E0220F331F220F331F220F331FAD
:1003A000820F931F875D9E4FFC018081813071F425
:1003B0008091270141E0682F898186DE89838091C1
:1003C000260140E0682F8A817FDE8A8380912601A2
:1003D0008F5F8093260180912601883098F288E211
:1003E00090E02981FC01208385E290E02A81FC01D4
:1003F0002083809127018F5F8093270180912701BF
:10040000883011F41092270100008B819C810F909D
:100410000F900F900F90DF91CF910895CF93DF93BE
:10042000CDB7DEB780E090E09ADF0000DF91CF919A
:1004300008951F920F9200905F000F921124009078
:100440005B000F922F933F934F935F936F937F9334
:100450008F939F93AF93BF93EF93FF93CF93DF93CC
:10046000CDB7DEB78091220190912301A0912401A4
:10047000B09125010197A109B109809322019093C0
:100480002301A0932401B093250180912201909132
:100490002301A0912401B0912501892B8A2B8B2B5C
:1004A00089F4BCDF8091000190910101A0910201CB
:1004B000B09103018093220190932301A093240122
:1004C000B09325010000DF91CF91FF91EF91BF9193
:1004D000AF919F918F917F916F915F914F913F91DC
:1004E0002F910F9000925B000F9000925F000F9091
:1004F0001F901895CF93DF93CDB7DEB78AE790E0D2
:100500002AE730E0F9012081206EFC012083000001
:10051000DF91CF910895CF93DF931F92CDB7DEB7D0
:1005200089838CE790E02981283028F02CE730E09F
:10053000F901208101C02981FC012083109228014A
:1005400006C00000809128018F5F80932801809170
:1005500028018F30B0F300000F90DF91CF91089504
:10056000CF93DF93CDB7DEB7C954D1090FB6F89456
:10057000DEBF0FBECDBF84E290E02FEFFC012083F1
:1005800085E290E0FC01108287E290E02FEFFC0111
:10059000208388E290E0FC0110828AE290E02FEF55
:1005A000FC0120838BE290E0FC01108281E290E06C
:1005B00027E0FC01208382E290E028E0FC01208318
:1005C000BBDD64E071E081E09ADE6CE071E082E026
:1005D00096DE81E08B838FE78C838CDF1E821D8209
:1005E00018861F8219821A82198619821EC01A82E1
:1005F00016C08981282F30E08A81882F90E0220F51
:10060000331F220F331F220F331F820F931F875D6B
:100610009E4F21E0FC0120838A818F5F8A838A813B
:10062000883038F389818F5F898389818830F8F237
:1006300084E071DF88E790E0FC01808191819887F8
:100640008F8385E068DF88E790E0FC0180819181FD
:100650009E838D838E818F938D818F9388858F93D9
:100660008F818F9384E191E0892F8F9384E191E0D2
:100670008F93CE018A96292F2F938F9311D08DB708
:100680009EB708960FB6F894DEBF0FBECDBFCE0161
:100690008A96BC0181E0C4DD8CE291E000DEC8CF27
:1006A0000F931F93CF93DF93CDB7DEB72E970FB67F
:1006B000F894DEBF0FBECDBF0D891E8986E08C8306
:1006C0001A8309838FEF9FE79E838D83AE01475E78
:1006D0005F4F6F89788DCE01019610D0EF81F8853C
:1006E000E00FF11F10822E960FB6F894DEBF0FBEFA
:1006F000CDBFDF91CF911F910F9108952F923F921F
:100700004F925F926F927F928F929F92AF92BF9221
:10071000CF92DF92EF92FF920F931F93CF93DF93CD
:10072000CDB7DEB72B970FB6F894DEBF0FBECDBFA7
:100730006C017B018A01FC0117821682838181FF93
:10074000BFC1CE0101963C01F6019381F70193FDF3
:10075000859193FF81917F01882309F4ADC1853292
:1007600039F493FD859193FF81917F01853221F4C6
:10077000B60190E0D6D1E8CF912C212C312CFFE1AD
:10078000F315D8F08B3279F038F4803279F0833277
:10079000A1F4232D20611DC08D3261F0803369F4F6
:1007A000232D216016C0832D8260382EE32DE46056
:1007B0003E2E2AC0F32DF8601DC037FC2DC020ED61
:1007C000280F2A3040F08E32B9F436FC75C1232D43
:1007D0002064322E19C036FE06C08AE0989E200D95
:1007E0001124922E11C0EAE02E9E200D1124222EFB
:1007F000F32DF0623F2E08C08C3621F4832D8068E3
:10080000382E02C0883641F4F70193FD859193FF9D
:1008100081917F018111B3CF982F9F7D95549330A3
:1008200028F40C5F1F4F9FE399830DC0833631F08E
:10083000833771F0833509F055C020C0F8018081FD
:1008400089830E5F1F4F88248394912C530112C01B
:100850002801F2E04F0E511CF801A080B18036FE55
:1008600003C0692D70E002C06FEF7FEFC5014ED16C
:100870004C018201F32DFF773F2E15C0280122E0A5
:10088000420E511CF801A080B18036FE03C0692DD4
:1008900070E002C06FEF7FEFC5012DD14C01F32D49
:1008A000F0683F2E820133FC19C0822D90E088163B
:1008B0009906A0F4B60180E290E033D12A94F5CFF6
:1008C000F50137FC859137FE81915F01B60190E01B
:1008D00028D121102A9421E0821A910881149104D0
:1008E00079F7E1C0843611F0893639F5F80137FE21
:1008F00007C060817181828193810C5F1F4F08C0A6
:1009000060817181072E000C880B990B0E5F1F4FC1
:10091000F32DFF763F2E97FF09C090958095709537
:1009200061957F4F8F4F9F4FF0683F2E2AE030E058
:10093000A30133D1882E861844C0853731F4232D86
:100940002F7EB22E2AE030E025C0932D997FB92E5C
:100950008F36C1F018F4883579F0AEC0803719F0C1
:10096000883721F0A9C0E92FE061BE2EB4FE0DC08A
:10097000FB2DF460BF2E09C034FE0AC0292F26606B
:10098000B22E06C028E030E005C020E130E002C011
:1009900020E132E0F801B7FE07C0608171818281F9
:1009A00093810C5F1F4F06C06081718180E090E0F1
:1009B0000E5F1F4FA301F1D0882E8618FB2DFF7705
:1009C0003F2E36FE0DC0232D2E7FA22E891458F403
:1009D00034FE0BC032FC09C0832D8E7EA82E05C0CC
:1009E000B82CA32C03C0B82C01C0B92CA4FE0FC096
:1009F000FE01E80DF11D8081803321F49A2D997E4E
:100A0000A92E09C0A2FE06C0B394B39404C08A2DD7
:100A1000867809F0B394A3FC10C0A0FE06C0B214FF
:100A200080F4280C922C9B180DC0B21458F4B60117
:100A300080E290E076D0B394F8CFB21418F42B187B
:100A400002C0982C212CA4FE0FC0B60180E390E0D8
:100A500068D0A2FE16C0A1FC03C088E790E002C0E7
:100A600088E590E0B6010CC08A2D867851F0A1FE91
:100A700002C08BE201C080E2A7FC8DE2B60190E0EB
:100A800050D0891430F4B60180E390E04AD09A94B3
:100A9000F8CF8A94F301E80DF11D8081B60190E052
:100AA00040D08110F6CF222009F44ECEB60180E26C
:100AB00090E037D02A94F7CFF6018681978102C063
:100AC0008FEF9FEF2B960FB6F894DEBF0FBECDBF12
:100AD000DF91CF911F910F91FF90EF90DF90CF901A
:100AE000BF90AF909F908F907F906F905F904F904E
:100AF0003F902F900895FC010590615070400110C7
:100B0000D8F7809590958E0F9F1F0895FC01615036
:100B1000704001900110D8F7809590958E0F9F1F1F
:100B200008950F931F93CF93DF93FB01238121FD42
:100B300003C08FEF9FEF2CC022FF16C04681578164
:100B4000248135814217530744F4A081B1819D016E
:100B50002F5F3F4F318320838C93268137812F5F16
:100B60003F4F3783268314C08B01EC01FB010084C7
:100B7000F185E02D0995892BE1F6D80116968D9126
:100B80009C911797019617969C938E931697CE017A
:100B9000DF91CF911F910F910895FA01AA27283074
:100BA00051F1203181F1E8946F936E7F6E5F7F4F3A
:100BB0008F4F9F4FAF4FB1E03ED0B4E03CD0670FB6
:100BC000781F891F9A1FA11D680F791F8A1F911D09
:100BD000A11D6A0F711D811D911DA11D20D009F459
:100BE00068943F912AE0269F11243019305D31939B
:100BF000DEF6CF010895462F4770405D4193B3E084
:100C00000FD0C9F7F6CF462F4F70405D4A3318F02A
:100C1000495D31FD4052419302D0A9F7EACFB4E0DB
:100C2000A6959795879577956795BA95C9F7009793
:100C30006105710508959B01AC010A2E0694579534
:100C4000479537952795BA95C9F7620F731F841F8B
:0A0C5000951FA01D0895F894FFCF32
:100C5A000100000000000A15110E040000000A1F1E
:100C6A001F0E0400783A2025642C20793A20256446
:020C7A00000078
:00000001FF
