S02200006279753031345F6C6E6775793038395F6C6162335F70617274312E73726563E6
S113000045C000004BC0000049C0000047C00000CC
S113001045C0000043C0000041C000003FC00000D4
S11300203DC000003BC0000039C0000037C00000E4
S113003035C0000033C0000031C000002FC00000F4
S11300402DC000002BC0000029C0000027C0000004
S113005025C0000023C0000021C000001FC0000014
S11300601DC000001BC0000019C0000017C0000024
S113007015C0000013C0000011C000000FC0000034
S11300800DC000000BC0000009C0000011241FBEF9
S1130090CFEFD0E4DEBFCDBF20D06BC0B1CFCF93C4
S11300A0DF9300D0CDB7DEB789836A838981882F37
S11300B090E02A81222F30E002C0959587952A95F9
S11300C0E2F78170992721E0892B09F420E0822F3F
S11300D00F900F90DF91CF910895CF93DF9300D0CD
S11300E000D0CDB7DEB781E290E0FC01108282E25D
S11300F090E0FC01108284E290E0FC01108285E231
S113010090E0FC01108287E290E02FEFFC01208355
S113011088E290E0FC0110821B821C8219821A8200
S113012080E290E0FC0180818B8383E290E0FC011B
S113013080818C8319821A8213C06A818B81AFDF1C
S1130140882319F089818F5F89836A818C81A7DF75
S1130150882319F089818F5F89838A818F5F8A83DD
S11301608A81883050F388E290E02981FC01208361
S1090170D7CFF894FFCF85
S9030000FC
