S02200006279753031345F6C6E6775793038395F6C6162365F70617274322E73726563E2
S113000045C0000060C000005EC000005CC000008D
S11300105AC0000058C0000056C0000054C0000080
S113002052C0000050C000004EC000004CC0000090
S11300304AC00000C2C1000046C0000044C0000025
S113004042C0000040C000003EC000003CC00000B0
S11300503AC0000038C0000036C0000034C00000C0
S113006032C0000030C000002EC000002CC00000D0
S11300702AC0000028C0000026C0000024C00000E0
S113008022C0000020C000001EC0000011241FBEBA
S1130090CFEFD0E4DEBFCDBF11E0A0E0B1E0EAECE9
S11300A0F4E000E00BBF02C007900D92A430B1074A
S11300B0D9F721E0A4E0B1E001C01D92AE30B2074F
S11300C0E1F7DCD100C29CCFCF93DF93CDB7DEB78D
S11300D080910A0190910B018230910509F18330DE
S11300E0910528F4009771F0019799F0B3C084301A
S11300F0910509F47FC084309105D8F1059709F47E
S113010061C0A8C081E090E090930B0180930A0144
S1130110A1C082E090E090930B0180930A019AC001
S113012080E290E0FC018081882F90E08170992723
S1130130892B69F482E090E090930D0180930C0187
S113014085E090E090930B0180930A0183C0809135
S11301500901843039F483E090E090930B0180939B
S11301600A0178C082E090E090930B0180930A0129
S113017071C080E290E0FC018081882F90E0817062
S11301809927892B69F483E090E090930D01809383
S11301900C0185E090E090930B0180930A015AC012
S11301A080910901813039F482E090E090930B0151
S11301B080930A014FC083E090E090930B018093F9
S11301C00A0148C080E290E0FC018081882F90E021
S11301D081709927892B39F485E090E090930B0185
S11301E080930A0137C084E090E090930B018093E0
S11301F00A0130C080E290E0FC018081882F90E009
S113020081709927892BF9F480910901843039F49C
S113021083E090E090930B0180930A011AC08091CF
S11302200901813039F482E090E090930B018093CE
S11302300A010FC080910C0190910D0190930B0164
S113024080930A0106C084E090E090930B018093B0
S11302500A01000080910A0190910B0182309105FE
S1130260D9F08330910528F4009771F1019751F08A
S113027030C08430910551F184309105C8F0059760
S113028039F127C081E08093090188E290E0209150
S11302900901FC0120831DC080910901880F80930E
S11302A0090188E290E020910901FC01208311C03A
S11302B08091090186958093090188E290E020915C
S11302C00901FC01208305C0000003C0000001C037
S11302D000000000DF91CF910895CF93DF93CDB755
S11302E0DEB781E890E02BE0FC01208388E890E011
S11302F02DE730E0FC01318320838FE690E022E09B
S1130300FC01208384E890E0FC011182108280913A
S1130310000190910101A0910201B0910301809329
S1130320050190930601A0930701B09308018FE59E
S113033090E02FE530E0F90120812068FC01208362
S11303400000DF91CF910895CF93DF9300D000D0C8
S1130350CDB7DEB769837A838B839C8389819A8145
S1130360AB81BC818093000190930101A0930201B1
S1130370B09303018091000190910101A0910201C9
S1130380B09103018093050190930601A0930701A6
S1130390B093080100000F900F900F900F90DF9121
S11303A0CF910895CF93DF93CDB7DEB781E08093EB
S11303B004010000DF91CF9108951F920F920090E5
S11303C05F000F92112400905B000F922F933F93D4
S11303D04F935F936F937F938F939F93AF93BF9349
S11303E0EF93FF93CF93DF93CDB7DEB780910501F1
S11303F090910601A0910701B09108010197A1090C
S1130400B1098093050190930601A0930701B0936D
S113041008018091050190910601A0910701B09116
S11304200801892B8A2B8B2B89F4BCDF8091000176
S113043090910101A0910201B09103018093050103
S113044090930601A0930701B09308010000DF9187
S1130450CF91FF91EF91BF91AF919F918F917F9138
S11304606F915F914F913F912F910F9000925B009C
S11304700F9000925F000F901F901895CF93DF9319
S1130480CDB7DEB781E290E0FC01108282E290E019
S11304902FEFFC01208387E290E02FEFFC01208303
S11304A088E290E0FC0110826CE271E080E090E070
S11304B04BDF13DF09DE0000809104018823E1F3A0
S10D04C010920401F7CFF894FFCF67
S10704CA0100000029
S9030000FC
