S02200006279753031345F6C6E6775793038395F6C6162375F70617274312E73726563E2
S113000045C0000060C000005EC000005CC000008D
S11300105AC0000058C0000056C0000054C0000080
S113002052C0000050C000004EC000004CC0000090
S11300304AC0000041C1000046C0000044C00000A6
S113004042C0000040C000003EC000003CC00000B0
S11300503AC0000038C0000036C0000034C00000C0
S113006032C0000030C000002EC000002CC00000D0
S11300702AC0000028C0000026C0000024C00000E0
S113008022C0000020C000001EC0000011241FBEBA
S1130090CFEFD0E4DEBFCDBF11E0A0E0B1E0E4EEED
S11300A0F5E000E00BBF02C007900D92A430B10749
S11300B0D9F721E0A4E0B1E001C01D92AD30B20750
S11300C0E1F75CD28DC29CCFCF93DF93CDB7DEB77F
S11300D081E01AD00000DF91CF910895CF93DF9390
S11300E0CDB7DEB784E690E0ACD088E30DD086E0EF
S11300F00BD08FE009D081E007D08AE090E0A1D056
S11301000000DF91CF910895CF93DF931F92CDB775
S1130110DEB789838BE290E02BE230E0F9012081A5
S11301202F7BFC01208388E290E02981FC0120835D
S11301308BE290E02BE230E0F90120812068FC01A1
S1130140208300008BE290E02BE230E0F901208173
S11301502F77FC01208382E090E073D000000F90A1
S1130160DF91CF910895CF93DF931F92CDB7DEB780
S113017089838BE290E02BE230E0F9012081206456
S1130180FC01208388E290E02981FC0120838BE23A
S113019090E02BE230E0F90120812068FC0120830B
S11301A000008BE290E02BE230E0F90120812F7710
S11301B0FC01208381E090E044D000000F90DF91A7
S11301C0CF910895CF93DF9300D000D0CDB7DEB7A1
S11301D08A837C836B8378DF8A8189830FC08981DA
S11301E091E0980F998318D08B819C819C012F5F9B
S11301F03F4F3C832B83FC018081B5DF8B819C8145
S1130200FC018081882359F700000F900F900F9014
S11302100F90DF91CF910895CF93DF931F92CDB7C5
S1130220DEB789838981813120F4898181586CDF2B
S113023003C08981815568DF00000F90DF91CF9161
S11302400895CF93DF9300D000D000D0CDB7DEB7B0
S11302509E838D831A82198213C01C821B8206C05E
S113026000008B819C8101969C838B838B819C8174
S113027087309340ACF389819A8101969A8389836C
S113028029813A818D819E812817390734F3000032
S113029026960FB6F894DEBF0FBECDBFDF91CF9187
S11302A00895CF93DF93CDB7DEB781E08093040147
S11302B00000DF91CF9108951F920F9200905F008C
S11302C00F92112400905B000F922F933F934F9352
S11302D05F936F937F938F939F93AF93BF93EF93AA
S11302E0FF93CF93DF93CDB7DEB780910501909153
S11302F00601A0910701B09108010197A109B10974
S11303008093050190930601A0930701B09308011F
S11303108091050190910601A0910701B091080117
S1130320892B8A2B8B2B89F4BCDF8091000190915F
S11303300101A0910201B091030180930501909302
S11303400601A0930701B09308010000DF91CF914B
S1130350FF91EF91BF91AF919F918F917F916F9199
S11303605F914F913F912F910F9000925B000F90FE
S113037000925F000F901F901895CF93DF93CDB735
S1130380DEB780910B0190910C018230910509F444
S113039044C08330910528F4009759F0019781F007
S11303A0A8C08330910509F461C0049709F487C09B
S11303B0A0C081E090E090930C0180930B0199C060
S11303C080E290E0FC018081882F90E08170992781
S11303D0892B39F484E090E090930C0180930B0115
S11303E088C080E290E0FC018081882F90E08170D9
S11303F09927892B39F483E090E090930C01809342
S11304000B0177C080E290E0FC01808181E090E004
S113041090930C0180930B016CC080E290E0FC018E
S11304208081882F90E081709927892B39F484E0AA
S113043090E090930C0180930B015BC080E290E00C
S1130440FC018081882F90E081709927892B39F4F1
S113045082E090E090930C0180930B014AC081E00C
S113046090E090930C0180930B0143C080E290E0F4
S1130470FC018081882F90E081709927892B39F4C1
S113048084E090E090930C0180930B0132C080E2F1
S113049090E0FC018081882F90E081709927892B5E
S11304A039F483E090E090930C0180930B0121C018
S11304B081E090E090930C0180930B011AC080E2DC
S11304C090E0FC018081882F90E080959095837066
S11304D09927892B39F084E090E090930C01809364
S11304E00B0107C081E090E090930C0180930B0115
S11304F0000080910B0190910C018230910571F004
S11305008330910528F4009781F1019781F132C07D
S113051083309105A9F0049709F12CC080910A0158
S11305208A3038F580910A018F5F80930A018091A7
S11305300A01882F90E0C096BC0181E043DE19C017
S113054080910A01815080930A0180910A01882FC9
S113055090E0C096BC0181E035DE0CC010920A0127
S113056060E370E081E02EDE05C0000003C00000FF
S113057001C000000000DF91CF910895CF93DF9375
S1130580CDB7DEB781E290E02FEFFC01208382E259
S113059090E02FEFFC01208387E290E02FEFFC0135
S11305A0208388E290E0FC0110828AE290E02FEF41
S11305B0FC0120838BE290E0FC0110828FDD8091AE
S11305C00901882F90E0C096BC0181E0FBDDD5DEF7
S11305D00000809104018823E1F310920401F7CF15
S10705E0F894FFCFB9
S10705E4010000000E
S9030000FC
