:1000000045C0000060C000005EC000005CC0000091
:100010005AC0000058C0000056C0000054C0000084
:1000200052C0000050C000004EC000004CC0000094
:100030004AC0000088C1000046C0000044C0000063
:1000400042C0000040C000003EC000003CC00000B4
:100050003AC0000038C0000036C0000034C00000C4
:1000600032C0000030C000002EC000002CC00000D4
:100070002AC0000028C0000026C0000024C00000E4
:1000800022C0000020C000001EC0000011241FBEBE
:10009000CFEFD0E4DEBFCDBF11E0A0E0B1E0EAE6F3
:1000A000F4E000E00BBF02C007900D92A430B1074E
:1000B000D9F721E0A4E0B1E001C01D92A234B2075B
:1000C000E1F78FD1D0C19CCF81309105B1F1823061
:1000D000910531F0009709F042C082E090E0089568
:1000E00020B130E02095309527703327233031053B
:1000F00031F483E080930D0181E090E0089520B118
:1001000030E020953095277033272130310531F4C8
:1001100081E080930D0181E090E0089520B130E00E
:10012000209530952770332722303105C1F482E0C5
:1001300080930D0181E090E0089520B130E020959A
:10014000309527703327232B21F021E020930C01D9
:10015000089510920C0110920D0182E090E0089534
:10016000009721F081309105A9F0089510920601C1
:100170001092050110920B0110920A0188EE93E093
:10018000909309018093080181E08093070181E049
:1001900090E0089520910C012223A1F120910A0101
:1001A00030910B012F5F3F4F30930B0120930A01D9
:1001B00040910501509106014F5F5F4F483B6BE056
:1001C000560728F450930601409305010CC048EBF4
:1001D0005BE0509306014093050140E951E05093E4
:1001E0000901409308014091080150910901241729
:1001F000350750F021E02093070110920B01109277
:100200000A01089580E090E008950895009739F577
:1002100020910C01222319F1209107012223F9F0EA
:100220001092070120910D01233021F41092040156
:1002300015B80895213049F420910401293078F44B
:100240002F5F2093040125B90895223041F42091B5
:100250000401222321F021502093040125B908959F
:100260008BE0809381008DE790E0909389008093EC
:10027000880082E080936F001092850010928400C5
:100280008091000190910101A0910201B0910301C0
:1002900080930E0190930F01A0931001B093110170
:1002A0008FB780688FBF089560930001709301013C
:1002B000809302019093030160930E0170930F01EC
:1002C00080931001909311010895EF92FF920F9384
:1002D0001F93CF93DF93C2E1D1E00F2EF2E4EF2E14
:1002E000F1E0FF2EF02D8E014E815F8168857985CA
:1002F0008A819B81AC81BD81481759076A077B07BA
:1003000058F0EA85FB8588819981099599838883CE
:100310001E821F8218861986F80186819781A08522
:10032000B1850196A11DB11D86839783A087B187F2
:100330002C96CE15DF05B9F6DF91CF911F910F9165
:10034000FF90EF9008951F920F920FB60F92112415
:100350000BB60F922F933F934F935F936F937F93BF
:100360008F939F93AF93BF93EF93FF9380910E0171
:1003700090910F01A0911001B09111010197A10975
:10038000B10980930E0190930F01A0931001B093D7
:100390001101892B8A2B8B2B89F497DF8091000127
:1003A00090910101A0910201B091030180930E018F
:1003B00090930F01A0931001B0931101FF91EF9161
:1003C000BF91AF919F918F917F916F915F914F916D
:1003D0003F912F910F900BBE0F900FBE0F901F906B
:1003E00018958FEF84B915B811B882B9E2E1F1E040
:1003F0001182108281E090E0A0E0B0E082839383DC
:10040000A483B58320EB30E03387228715861486DA
:1004100048EE53E060E070E046875787608B718B51
:1004200025E031E0378B268B118E108E828F938FD3
:10043000A48FB58F84E690E093A382A315A214A2A3
:100440008AE090E0A0E0B0E086A397A3A0A7B1A7C0
:1004500086E091E097A786A761E070E080E090E0F9
:0A04600023DFFEDEFFCFF894FFCF8C
:04046A00010000008D
:00000001FF
