S0190000736E616B6566696E616C70726F6A6563742E73726563F8
S113000045C0000062C0000060C000005EC0000087
S11300105CC000005AC0000058C0000056C0000078
S113002054C0000052C0000050C000004EC0000088
S11300304CC00000E6C3000048C0000046C00000F9
S113004044C0000042C0000040C000003EC00000A8
S11300503CC000003AC0000038C0000036C00000B8
S113006034C0000032C0000030C000002EC00000C8
S11300702CC000002AC0000028C0000026C00000D8
S113008024C0000022C0000020C0000011241FBEB4
S1130090CFEFD0E4DEBFCDBF11E0A0E0B1E0E4E8F3
S11300A0F1E200E00BBF02C007900D92A039B10746
S11300B0D9F722E0A0E9B1E001C01D92A832B2074D
S11300C0E1F70E94AD0A0C94C0109ACFFC010FB660
S11300D0F8946091240270912502809126029091F7
S11300E027020FBE309721F060837183828393834C
S11300F00895CF93DF93CDB7DEB781E01AD0000027
S1130100DF91CF910895CF93DF93CDB7DEB784E627
S113011090E0D5D088E30DD086E00BD08FE009D0F5
S113012081E007D08AE090E0CAD00000DF91CF914F
S11301300895CF93DF931F92CDB7DEB7898382E210
S113014090E022E230E0F90120812E7FFC0120833F
S11301508BE290E02981FC01208382E290E022E29C
S113016030E0F90120812260FC012083000082E25A
S113017090E022E230E0F90120812D7FFC01208310
S113018082E090E09CD000000F90DF91CF91089521
S1130190CF93DF931F92CDB7DEB7898382E290E0DD
S11301A022E230E0F90120812160FC0120838BE20E
S11301B090E02981FC01208382E290E022E230E099
S11301C0F90120812260FC012083000082E290E09A
S11301D022E230E0F90120812D7FFC01208381E0BF
S11301E090E06DD000000F90DF91CF910895CF93F0
S11301F0DF9300D000D0CDB7DEB78A837C836B83D6
S113020078DF8A8189830FC0898191E0980F99836F
S113021041D08B819C819C012F5F3F4F3C832B837A
S1130220FC018081B5DF8B819C81FC018081882366
S113023059F700000F900F900F900F90DF91CF911E
S11302400895CF93DF9300D000D0CDB7DEB78A8373
S11302507C836B838A8189830FC0898191E0980FA5
S1130260998318D08B819C819C012F5F3F4F3C83E5
S11302702B83FC0180818CDF8B819C81FC0180813C
S1130280882359F700000F900F900F900F90DF9183
S1130290CF910895CF93DF931F92CDB7DEB78983B3
S11302A08981813120F48981815843DF03C08981A8
S11302B081553FDF00000F90DF91CF910895CF93D8
S11302C0DF9300D000D000D0CDB7DEB79E838D83FE
S11302D01A82198213C01C821B8206C000008B8103
S11302E09C8101969C838B838B819C818730934076
S11302F0ACF389819A8101969A83898329813A8111
S11303008D819E812817390734F3000026960FB695
S1130310F894DEBF0FBECDBFDF91CF910895CF9388
S1130320DF9300D000D0CDB7DEB78A837C836B83A4
S11303308A818830D0F48A81882F90E00896880FCB
S1130340880F880FF6DE19820DC08981882F90E00E
S11303502B813C81820F931FFC01808119DF8981ED
S11303608F5F89838981883080F380E8E2DE000032
S11303700F900F900F900F90DF91CF910895CF932E
S1130380DF9300D01F92CDB7DEB789836A834B8396
S11303908B81882371F08A81282F30E081E090E0FE
S11303A002C0880F991F2A95E2F7982F8981892B1B
S11303B00EC08A81282F30E081E090E002C0880FCF
S11303C0991F2A95E2F7982F9095898189230F9098
S11303D00F900F90DF91CF910895CF93DF93CDB716
S11303E0DEB78AE790E02AE730E0F9012081206E49
S11303F0FC0120830000DF91CF910895CF93DF9318
S11304001F92CDB7DEB789838CE790E0298128302D
S113041028F02CE730E0F901208101C02981FC019A
S113042020831092A20106C000008091A2018F5F78
S11304308093A2018091A2018F30B0F300000F904D
S1130440DF91CF910895CF93DF93CDB7DEB781E8E5
S113045090E02BE0FC01208388E890E02DE730E079
S1130460FC01318320838FE690E022E0FC012083AD
S113047084E890E0FC011182108280910A0190913D
S11304800B01A0910C01B0910D0180939001909308
S11304909101A0939201B09393018FE590E02FE531
S11304A030E0F90120812068FC0120830000DF9105
S11304B0CF910895CF93DF9300D000D0CDB7DEB7AE
S11304C069837A838B839C8389819A81AB81BC8184
S11304D080930A0190930B01A0930C01B0930D013A
S11304E080910A0190910B01A0910C01B0910D0132
S11304F08093900190939101A0939201B093930102
S113050000000F900F900F900F90DF91CF910895FE
S11305100F931F93CF93DF9300D01F92CDB7DEB715
S11305201982A4C08981282F30E0C901880F991F3E
S1130530820F931F880F991F880F991F8A549E4F0B
S1130540FC0120813181428153818981682F70E0CF
S1130550CB01880F991F860F971F880F991F880F4B
S1130560991F8E549E4FFC0180819181A281B38199
S1130570281739074A075B0708F449C08981082FFF
S113058010E08981282F30E0C901880F991F820F5C
S1130590931F880F991F880F991F86549E4FFC0143
S11305A0408151818981282F30E0C901880F991F2A
S11305B0820F931F880F991F880F991F80559E4F94
S11305C0FC0180819181FA0109959C01C801880F81
S11305D0991F800F911F880F991F880F991F8055AD
S11305E09E4FFC01318320838981282F30E0C9018B
S11305F0880F991F820F931F880F991F880F991FC7
S11306008A549E4FFC0110821182128213828981C6
S1130610682F70E08981282F30E0C901880F991F65
S1130620820F931F880F991F880F991F8A549E4F1A
S1130630FC0180819181A281B3819C01AD012F5F76
S11306403F4F4F4F5F4FCB01880F991F860F971F66
S1130650880F991F880F991F8A549E4FFC0120838D
S113066031834283538389818F5F898384E09981B5
S1130670981708F457CF1B821A8286E0BFDE88E7FA
S113068090E0FC01808191819B838A838A819B8194
S1130690893E934000F18091CA019091CB01A091D1
S11306A0CC01B091CD01843F9140A105B10599F0F1
S11306B084EF91E0A0E0B0E08093CA019093CB0175
S11306C0A093CC01B093CD0181E090E09093A4017C
S11306D08093A3017BC08A819B81883C9105D0F4DF
S11306E08091CA019091CB01A091CC01B091CD0130
S11306F084369105A105B10569F084E690E0A0E097
S1130700B0E08093CA019093CB01A093CC01B09345
S1130710CD015CC08A819B8180399140D0F4809165
S1130720CA019091CB01A091CC01B091CD01883C3C
S11307309105A105B10569F088EC90E0A0E0B0E076
S11307408093CA019093CB01A093CC01B093CD01C7
S11307503DC08A819B8188359240D0F48091CA0142
S11307609091CB01A091CC01B091CD018C329140FC
S1130770A105B10569F08CE291E0A0E0B0E08093BE
S1130780CA019093CB01A093CC01B093CD011EC0BC
S11307908A819B8180329340C8F48091CA019091F0
S11307A0CB01A091CC01B091CD0180399140A1053C
S11307B0B10561F080E991E0A0E0B0E08093CA0166
S11307C09093CB01A093CC01B093CD018091A30170
S11307D09091A401892B61F01092CE011092CF0167
S11307E01092D0011092D1011092A4011092A30191
S11307F000000F900F900F90DF91CF911F910F91F8
S113080008951F920F9200905F000F9211240090A0
S11308105B000F922F933F934F935F936F937F935C
S11308208F939F93AF93BF93EF93FF93CF93DF93F4
S1130830CDB7DEB78091900190919101A091920182
S1130840B09193010197A109B1098093900190930C
S11308509101A0939201B0939301809190019091A2
S11308609101A0919201B0919301892B8A2B8B2B3A
S113087089F44EDE80910A0190910B01A0910C0144
S1130880B0910D018093900190939101A0939201F6
S1130890B09393010000DF91CF91FF91EF91BF914D
S11308A0AF919F918F917F916F915F914F913F9104
S11308B02F910F9000925B000F9000925F000F90B9
S11308C01F901895CF93DF9300D0CDB7DEB79A83EE
S11308D0898389819A818130910509F464C08230C9
S11308E0910509F471C0892B09F090C01092980108
S11308F01092950180E290E0FC018081882F90E0C5
S113090088709927892BD1F481E0809398016FE056
S113091071E081E06CDC68E171E081E192DC1092CD
S1130920A5011092940182E090E09093A701809336
S1130930A60181E090E09A83898363C08091A50138
S1130940882309F05EC0D5DB64E271E081E14FDC0D
S113095063E371E081E075DC80E090E00E944D107B
S1130960882F90E0292F2F938F9380E491E0892F93
S11309708F9380E491E08F9388EA91E0892F8F939D
S113098088EA91E08F930E94720D0F900F900F9060
S11309900F900F900F9068EA71E08DE052DC81E0D7
S11309A08093A5012EC080E290E0FC018081882F15
S11309B090E088709927892B31F18091A60190915C
S11309C0A7019A83898322C080E290E0FC018081A0
S11309D0882F90E088709927892BB9F48ADB63E427
S11309E071E081E004DC81E080939501109298012C
S11309F01092A7011092A60181E090E09A83898366
S1130A0004C0000003C0000001C0000089819A8175
S1130A100F900F90DF91CF910895CF93DF9300D083
S1130A20CDB7DEB79A83898389819A81009719F0BB
S1130A300197B9F0C4C080919801882309F4BCC01F
S1130A4010929601109297011092AB011092AA0194
S1130A501092AD011092AC0181E090E09A838983F9
S1130A60AEC080919501882319F01A821982A7C01B
S1130A7084E0C4DC88E790E0FC018081918190935C
S1130A80AB018093AA0185E0B9DC88E790E0FC0122
S1130A90808191819093AD018093AC018CE1FADB6C
S1130AA08091AA019091AB01843D9105D0F480918D
S1130AB0AC019091AD01925081309F4F94F08091A0
S1130AC0AC019091AD0192508F3F910509F04CF427
S1130AD08CE68093960181E080930E0181E058DBDF
S1130AE062C08091AA019091AB018D329340D0F005
S1130AF08091AC019091AD01925081309F4F94F060
S1130B008091AC019091AD0192508F3F910509F015
S1130B104CF482E78093960182E080930E0182E098
S1130B2037DB41C08091AC019091AD01843D9105CA
S1130B30D0F48091AA019091AB01925081309F4FE3
S1130B4094F08091AA019091AB0192508F3F91054E
S1130B5009F04CF485E78093960183E080930E01BD
S1130B6083E016DB20C08091AC019091AD018D3201
S1130B709340C8F08091AA019091AB0192508130CA
S1130B809F4F8CF08091AA019091AB0192508F3FBE
S1130B90910509F044F484E68093960184E08093FF
S1130BA00E0184E0F5DA80919701882339F480916D
S1130BB096018093970102C0000001C00000898162
S1130BC09A810F900F90DF91CF910895CF93DF9387
S1130BD000D000D0CDB7DEB79C838B838B819C8102
S1130BE09A83898324C089819A81FC0182819381BB
S1130BF0892BB1F089819A81FC0182819381FC0166
S1130C00208189819A81FC01208389819A81FC0158
S1130C1082819381FC01218189819A81FC01218354
S1130C2089819A81FC01828193819A838983898154
S1130C309A81FC0182819381892BA9F689819A8109
S1130C400F900F900F900F90DF91CF910895CF9355
S1130C50DF93CDB7DEB72F970FB6F894DEBF0FBE84
S1130C60CDBF9D878C877F876E8719821A821B82EE
S1130C7019821DC01A8215C08981282F30E08A810B
S1130C80882F90E0220F331F220F331F220F331FB0
S1130C90820F931F80529E4FFC0110828A818F5FC6
S1130CA08A838A81883040F389818F5F898389812F
S1130CB0883000F38C859D859D838C831E828FEF05
S1130CC08F8323C08C819D81FC018181282F30E09A
S1130CD08C819D81FC018081882F90E0220F331F3D
S1130CE0220F331F220F331F820F931F80529E4FF8
S1130CF021E0FC0120838C819D81FC018281938110
S1130D009D838C838B818F5F8B838C819D81892BC9
S1130D10C9F68E859F85FC01208180919B0190916D
S1130D209C01FC018081281709F081C08E859F8574
S1130D30FC01218180919B0190919C01FC018181A6
S1130D40281709F074C084E090E056D59987888705
S1130D5080919B0190919C01FC012081888599855B
S1130D60FC01208380919B0190919C01FC012181D5
S1130D7088859985FC01218388859985FC011382E6
S1130D8012828E859F8528853985FC0133832283D1
S1130D908E859F85FC01828193819F878E8781E068
S1130DA080939D01809194018F5F80939401809141
S1130DB09401882F90E0292F2F938F9380E491E062
S1130DC0892F8F9380E491E08F93CE010A96292F87
S1130DD02F938F9387D60F900F900F900F900F90B3
S1130DE00F90CE010A96BC0188E02BDA80E090E0F7
S1130DF00E944D10982F80919401981738F4809197
S1130E009401682F80E090E00E9455108091940135
S1130E108F3369F4109294016DE471E081E0E7D9B5
S1130E2065E571E081E10DDA81E080939E018F81B7
S1130E30282F30E08E81882F90E040EE51E0B901F8
S1130E400AD000002F960FB6F894DEBF0FBECDBFB8
S1130E50DF91CF910895CF93DF93CDB7DEB7279776
S1130E600FB6F894DEBF0FBECDBF8C836D835F8356
S1130E704E83198280919D01882309F061C080917D
S1130E809B0190919C01FC018181882F90E0880F47
S1130E90991F880F991F880F991F2E813F81280F52
S1130EA0391F80919B0190919C01FC018081882FC6
S1130EB090E0820F931F21E0FC012083198226C059
S1130EC08091AE01882F90E0880F991F880F991F99
S1130ED0880F991F2E813F81280F391F8981882F00
S1130EE090E0820F931FFC018081813061F4809136
S1130EF0AE0141E0682F8C8142DA8C8340E0698145
S1130F008D813DDA8D8389818F5F898389818830E2
S1130F10B8F288E290E02C81FC01208385E290E025
S1130F202D81FC0120838091AE018F5F8093AE01FF
S1130F308091AE01883009F067C01092AE0164C0A0
S1130F4010929D01C1D587709078992324F401975C
S1130F50886F9F6F01968A83B7D58770907899239D
S1130F6024F40197886F9F6F01968B8314C0ACD5CE
S1130F7087709078992324F40197886F9F6F019666
S1130F808A83A2D587709078992324F40197886F77
S1130F909F6F01968B838B81882F90E0880F991F18
S1130FA0880F991F880F991F2E813F81280F391FA1
S1130FB08A81882F90E0820F931FFC018081813009
S1130FC0B1F280919B0190919C012A81FC012083C4
S1130FD080919B0190919C012B81FC01218341E034
S1130FE06B818C81CCD98C8340E06A818D81C7D997
S1130FF08D8388E290E02C81FC01208385E290E0DF
S11310002D81FC01208301C0000027960FB6F894BF
S1131010DEBF0FBECDBFDF91CF9108950F931F9315
S1131020CF93DF93CDB7DEB72E970FB6F894DEBF1C
S11310300FBECDBF9E878D871F828FEF8887198251
S11310401A8219821DC01A8215C08981282F30E0A6
S11310508A81882F90E0220F331F220F331F220F23
S1131060331F820F931F80529E4FFC0110828A818E
S11310708F5F8A838A81883040F389818F5F898377
S11310808981883000F38D859E858130910509F42E
S11310907EC08230910509F4D1C1892B09F01FC2A9
S11310A080919801882309F413C21092A10184E06D
S11310B090E0A2D390939A01809399018091990131
S11310C090919A0125E0FC012083809199019091EF
S11310D09A0123E0FC0121838091990190919A0166
S11310E0FC01138212828091990190919A0190934C
S11310F0A00180939F0182E090E07ED390939C01B5
S113110080939B0180919B0190919C0122E0FC01C2
S1131110208380919B0190919C0123E0FC01218319
S11311208091990190919A01FC01818141E0682F9D
S11311308F8125D98F838091990190919A01FC0127
S1131140808140E0682F88851AD9888708E210E0FA
S113115080919B0190919C01FC01818141E0682F69
S11311608F810DD9F801808305E210E080919B0105
S113117090919C01FC01808140E0682F8885FFD814
S1131180F801808381E090E09E878D87A8C18091DB
S11311909E01882321F082E090E09E878D878091D4
S11311A09501882389F18091990190919A019C83FA
S11311B08B838B819C81FC01828193819A878987AF
S11311C00EC08B819C81FC01828193819A878987DF
S11311D08B819C81A9D389859A859C838B838B8100
S11311E09C81892B71F710929A01109299011E86A5
S11311F01D8688E290E02FEFFC01208385E290E0D9
S11312002FEFFC0120836BC180919601882309F4A0
S113121061C18091990190919A01D8DC9093A001C9
S113122080939F01809197018C36C1F5809196013E
S1131230853789F485E78093970180919F01909188
S1131240A00120919F013091A001F9012181215039
S1131250FC012183D6C080919601843689F484E60A
S11312608093970180919F019091A00120919F010B
S11312703091A001F90121812F5FFC012183C1C0BC
S113128080919F019091A00120919F013091A00134
S1131290F90120812F5FFC012083B3C08091970165
S11312A08237C1F580919601853789F485E780936B
S11312B0970180919F019091A00120919F0130910D
S11312C0A001F90121812150FC0121839AC0809160
S11312D09601843689F484E68093970180919F0176
S11312E09091A00120919F013091A001F9012181E9
S11312F02F5FFC01218385C080919F019091A00103
S113130020919F013091A001F90120812150FC011D
S1131310208377C0809197018537C1F5809196012C
S11313208C3689F48CE68093970180919F0190918B
S1131330A00120919F013091A001F90120812F5F2C
S1131340FC0120835EC080919601823789F482E794
S11313508093970180919F019091A00120919F011A
S11313603091A001F90120812150FC01208349C062
S113137080919F019091A00120919F013091A00143
S1131380F90121812150FC0121833BC08091970107
S11313908436B9F5809196018C3689F48CE6809375
S11313A0970180919F019091A00120919F0130911C
S11313B0A001F90120812F5FFC01208322C08091CC
S11313C09601823789F482E78093970180919F0187
S11313D09091A00120919F013091A001F9012081F9
S11313E02150FC0120830DC080919F019091A001A8
S11313F020919F013091A001F90121812F5FFC010F
S1131400218380919F019091A001FC01808188300B
S113141068F480919F019091A001FC018181883042
S113142028F48091A101813009F056C081E08093B5
S11314309E0182E090E09E878D8751C08091AF012C
S1131440882369F466E671E081E00E94F70065E5AF
S113145071E081E10E94210181E08093AF018091DC
S113146095018823D9F110929E011092AF018091C9
S1131470990190919A019E838D838D819E81FC01B7
S1131480828193819C878B870EC08D819E81FC0114
S1131490828193819C878B878D819E8145D28B85A8
S11314A09C859E838D838D819E81892B71F71092FB
S11314B09A01109299011E861D8688E290E02FEF12
S11314C0FC01208385E290E02FEFFC01208307C01C
S11314D0000005C0000003C0000001C000008D85AD
S11314E09E852E960FB6F894DEBF0FBECDBFDF915A
S11314F0CF911F910F910895CF93DF9300D0CDB773
S1131500DEB79A83898389819A81009719F00197BC
S113151051F01CC0809198018823B9F081E090E0DB
S11315209A83898313C080919501882319F01A82C4
S113153019820CC020919F013091A00180919901E2
S113154090919A01B90183DB01C0000089819A81DD
S11315500F900F90DF91CF910895CF93DF9300D038
S11315601F92CDB7DEB71A82198284E290E02FEF82
S1131570FC01208385E290E0FC01108287E290E088
S11315802FEFFC01208388E290E0FC0110828AE2C4
S113159090E02FEFFC0120838BE290E0FC011082AD
S11315A081E290E027E0FC01208382E290E028E0E1
S11315B0FC0120831B828B81282F30E0C901880F16
S11315C0991F820F931F880F991F880F991F8055A9
S11315D09E4FFC01118210828B81282F30E0C901BB
S11315E0880F991F820F931F880F991F880F991FC7
S11315F09C012E543E4F8CE291E0A0E0B0E0F90152
S113160080839183A283B3838B81282F30E0C90127
S1131610880F991F820F931F880F991F880F991F96
S113162086549E4F22E634E0FC01318320838B8173
S11316308F5F8B838B81282F30E0C901880F991F1E
S1131640820F931F880F991F880F991F80559E4FF3
S1131650FC01118210828B81282F30E0C901880F90
S1131660991F820F931F880F991F880F991F9C0140
S11316702E543E4F84E690E0A0E0B0E0F901808370
S11316809183A283B3838B81282F30E0C901880F13
S1131690991F820F931F880F991F880F991F8654D3
S11316A09E4F2DE035E0FC01318320838B818F5FD9
S11316B08B838B81282F30E0C901880F991F820FFB
S11316C0931F880F991F880F991F80559E4FFC0107
S11316D0118210828B81282F30E0C901880F991F55
S11316E0820F931F880F991F880F991F9C012E54F6
S11316F03E4F84E690E0A0E0B0E0F901808391835E
S1131700A283B3838B81282F30E0C901880F991FEE
S1131710820F931F880F991F880F991F86549E4F1D
S11317202EE038E0FC01318320838B818F5F8B8333
S11317308B81282F30E0C901880F991F820F931FD6
S1131740880F991F880F991F80559E4FFC011182A5
S113175010828B81282F30E0C901880F991F820FD6
S1131760931F880F991F880F991F9C012E543E4F79
S113177081E090E0A0E0B0E0F90180839183A2834E
S1131780B3838B81282F30E0C901880F991F820F02
S1131790931F880F991F880F991F86549E4F2CE71B
S11317A03AE0FC01318320830E9483000E94ED0112
S11317B060E871E081E00E948F0168E871E082E0F6
S11317C00E948F0160E771E083E00E948F0168E767
S11317D071E084E00E948F0180E090E00E94660046
S11317E0DC01CB0174D161E070E080E090E00E9404
S11317F05A020E942302FFCF0F931F93CF93DF93CC
S11318008230910510F482E090E0E0912202F091A0
S1131810230220E030E0A0E0B0E0309719F14081ED
S113182051810281138148175907C8F0841795071D
S113183069F4109731F012960C93129713961C9337
S113184027C0009322021093230222C021153105E0
S113185019F04217530718F49A01BD01EF01DF0193
S1131860F801DBCF21153105F9F0281B390B2430A1
S1131870310580F48A819B816115710521F0FB019A
S11318809383828304C09093230280932202FE01F7
S1131890329644C0FE01E20FF31F819391932250CC
S11318A03109398328833AC02091200230912102E2
S11318B0232B41F420910201309103013093210242
S11318C0209320022091000130910101211531055E
S11318D041F42DB73EB74091040150910501241BFA
S11318E0350BE0912002F0912102E217F307A0F4F6
S11318F02E1B3F0B2817390778F0AC014E5F5F4F62
S11319002417350748F04E0F5F1F50932102409370
S113191020028193919302C0E0E0F0E0CF01DF91D7
S1131920CF911F910F910895CF93DF93009709F4FE
S113193081C0FC01329713821282A0912202B091DD
S11319402302109781F420813181820F931F20910B
S11319502002309121022817390751F5F093210212
S1131960E093200267C0ED0120E030E0CE17DF07EE
S113197040F44A815B819E0141155105F1F0EA0171
S1131980F5CFD383C28340815181840F951FC8173B
S1131990D90759F488819981840F951F0296918300
S11319A080838A819B81938382832115310529F465
S11319B0F0932302E09322023DC0E901FB83EA8312
S11319C049915991C40FD51FEC17FD0761F480812B
S11319D09181840F951F0296E901998388838281FE
S11319E093819B838A83E0E0F0E012968D919C9131
S11319F01397009719F0FD01DC01F7CF8D919C91AD
S1131A0011979D012E5F3F4F820F931F209120025B
S1131A10309121022817390769F4309729F410927C
S1131A2023021092220202C013821282B093210276
S1131A30A0932002DF91CF9108958F929F92AF924D
S1131A40BF92CF92DF92EF92FF92CF93DF93EC019C
S1131A50688179818A819B81611571058105910570
S1131A6021F464E279ED8BE597E02DE133EF41E079
S1131A7050E029D349015A019B01AC01A7EAB1E422
S1131A803ED36B017C01ACEEB4EFA501940143D3CA
S1131A90DC01CB018C0D9D1DAE1DBF1DB7FF03C026
S1131AA00197A109B04888839983AA83BB839F7750
S1131AB0DF91CF91FF90EF90DF90CF90BF90AF90E8
S1131AC09F908F900895B9CF86E091E0B6CFA0E0C3
S1131AD0B0E08093060190930701A0930801B093AE
S1131AE0090108950F931F93CF93DF93CDB7DEB70A
S1131AF02E970FB6F894DEBF0FBECDBF0D891E8999
S1131B0086E08C831A8309838FEF9FE79E838D83FE
S1131B10AE01475E5F4F6F89788DCE01019610D07C
S1131B20EF81F885E00FF11F10822E960FB6F8941E
S1131B30DEBF0FBECDBFDF91CF911F910F910895EE
S1131B402F923F924F925F926F927F928F929F92C9
S1131B50AF92BF92CF92DF92EF92FF920F931F93B7
S1131B60CF93DF93CDB7DEB72B970FB6F894DEBFD4
S1131B700FBECDBF6C017B018A01FC011782168266
S1131B80838181FFBFC1CE0101963C01F60193819F
S1131B90F70193FD859193FF81917F01882309F4D7
S1131BA0ADC1853239F493FD859193FF81917F0115
S1131BB0853221F4B60190E0D6D1E8CF912C212CC6
S1131BC0312CFFE1F315D8F08B3279F038F4803200
S1131BD079F08332A1F4232D20611DC08D3261F090
S1131BE0803369F4232D216016C0832D8260382E42
S1131BF0E32DE4603E2E2AC0F32DF8601DC037FCAF
S1131C002DC020ED280F2A3040F08E32B9F436FC76
S1131C1075C1232D2064322E19C036FE06C08AE019
S1131C20989E200D1124922E11C0EAE02E9E200DC4
S1131C301124222EF32DF0623F2E08C08C3621F49D
S1131C40832D8068382E02C0883641F4F70193FD55
S1131C50859193FF81917F018111B3CF982F9F7D4F
S1131C609554933028F40C5F1F4F9FE399830DC064
S1131C70833631F0833771F0833509F055C020C0C5
S1131C80F801808189830E5F1F4F88248394912CEF
S1131C90530112C02801F2E04F0E511CF801A0803C
S1131CA0B18036FE03C0692D70E002C06FEF7FEF94
S1131CB0C5014ED14C018201F32DFF773F2E15C093
S1131CC0280122E0420E511CF801A080B18036FEAA
S1131CD003C0692D70E002C06FEF7FEFC5012DD105
S1131CE04C01F32DF0683F2E820133FC19C0822D84
S1131CF090E088169906A0F4B60180E290E033D112
S1131D002A94F5CFF50137FC859137FE81915F0167
S1131D10B60190E028D121102A9421E0821A91087A
S1131D208114910479F7E1C0843611F0893639F5CC
S1131D30F80137FE07C060817181828193810C5F55
S1131D401F4F08C060817181072E000C880B990B0E
S1131D500E5F1F4FF32DFF763F2E97FF09C090951E
S1131D608095709561957F4F8F4F9F4FF0683F2E00
S1131D702AE030E0A30133D1882E861844C0853789
S1131D8031F4232D2F7EB22E2AE030E025C0932D8E
S1131D90997FB92E8F36C1F018F4883579F0AEC02A
S1131DA0803719F0883721F0A9C0E92FE061BE2EF1
S1131DB0B4FE0DC0FB2DF460BF2E09C034FE0AC072
S1131DC0292F2660B22E06C028E030E005C020E1AD
S1131DD030E002C020E132E0F801B7FE07C06081C4
S1131DE07181828193810C5F1F4F06C06081718174
S1131DF080E090E00E5F1F4FA301F1D0882E86187B
S1131E00FB2DFF773F2E36FE0DC0232D2E7FA22EF5
S1131E10891458F434FE0BC032FC09C0832D8E7E25
S1131E20A82E05C0B82CA32C03C0B82C01C0B92C13
S1131E30A4FE0FC0FE01E80DF11D8081803321F462
S1131E409A2D997EA92E09C0A2FE06C0B394B3941C
S1131E5004C08A2D867809F0B394A3FC10C0A0FEB8
S1131E6006C0B21480F4280C922C9B180DC0B21436
S1131E7058F4B60180E290E076D0B394F8CFB2146F
S1131E8018F42B1802C0982C212CA4FE0FC0B60104
S1131E9080E390E068D0A2FE16C0A1FC03C088E7EE
S1131EA090E002C088E590E0B6010CC08A2D8678E7
S1131EB051F0A1FE02C08BE201C080E2A7FC8DE2DA
S1131EC0B60190E050D0891430F4B60180E390E07C
S1131ED04AD09A94F8CF8A94F301E80DF11D8081D9
S1131EE0B60190E040D08110F6CF222009F44ECE06
S1131EF0B60180E290E037D02A94F7CFF6018681CC
S1131F00978102C08FEF9FEF2B960FB6F894DEBF38
S1131F100FBECDBFDF91CF911F910F91FF90EF9036
S1131F20DF90CF90BF90AF909F908F907F906F90F5
S1131F305F904F903F902F900895FC010590615061
S1131F4070400110D8F7809590958E0F9F1F0895CB
S1131F50FC016150704001900110D8F78095909574
S1131F608E0F9F1F08950F931F93CF93DF93FB0151
S1131F70238121FD03C08FEF9FEF2CC022FF16C0E9
S1131F8046815781248135814217530744F4A08147
S1131F90B1819D012F5F3F4F318320838C93268134
S1131FA037812F5F3F4F3783268314C08B01EC01A9
S1131FB0FB010084F185E02D0995892BE1F6D80118
S1131FC016968D919C911797019617969C938E93D4
S1131FD01697CE01DF91CF911F910F910895FA01C9
S1131FE0AA27283051F1203181F1E8946F936E7F54
S1131FF06E5F7F4F8F4F9F4FAF4FB1E03ED0B4E045
S11320003CD0670F781F891F9A1FA11D680F791F85
S11320108A1F911DA11D6A0F711D811D911DA11D96
S113202020D009F468943F912AE0269F11243019A6
S1132030305D3193DEF6CF010895462F4770405D41
S11320404193B3E00FD0C9F7F6CF462F4F70405DF0
S11320504A3318F0495D31FD4052419302D0A9F74B
S1132060EACFB4E0A6959795879577956795BA9545
S1132070C9F700976105710508959B01AC010A2E0B
S113208006945795479537952795BA95C9F7620FE2
S1132090731F841F951FA01D0895F999FECF92BD4B
S11320A081BDF89A992780B50895262FF999FECF16
S11320B01FBA92BD81BD20BD0FB6F894FA9AF99A61
S11320C00FBE01960895052E97FB16F400940FD0C9
S11320D057FD05D024D007FC02D046F408C0509523
S11320E04095309521953F4F4F4F5F4F0895909500
S11320F08095709561957F4F8F4F9F4F089531D094
S1132100A59F900DB49F900DA49F800D911D112447
S11321100895B7FFF4CFF3DF821B930B0895A1E278
S11321201A2EAA1BBB1BFD010DC0AA1FBB1FEE1F4D
S1132130FF1FA217B307E407F50720F0A21BB30B98
S1132140E40BF50B661F771F881F991F1A9469F714
S113215060957095809590959B01AC01BD01CF0170
S11321600895A29FB001B39FC001A39F700D811D6C
S11321701124911DB29F700D811D1124911D08958C
S1072180F894FFCFFD
S113218400002802200001000000010000000153A7
S1132194636F72653A203000446972656374696FD1
S11321A46E3A2000507265737320746F20737461E7
S11321B4727400486967682053636F72653A20003B
S11321C4256400526573657474696E6700564943E7
S11321D4544F525900507265737320746F207265A2
S11321E473746172740047616D65204F7665720083
S11321F400040E1F0E0E0000000E0E1F0E0400003D
S113220400040F1F0F04000000041E1F1E0400001E
S9030000FC
